{
  "contractName": "CFD",
  "abi": [
    {
      "inputs": [
        {
          "internalType": "address",
          "name": "_makerMedianizer",
          "type": "address"
        },
        {
          "internalType": "address",
          "name": "_uniswapFactory",
          "type": "address"
        },
        {
          "internalType": "address",
          "name": "_daiToken",
          "type": "address"
        },
        {
          "internalType": "uint256",
          "name": "_leverage",
          "type": "uint256"
        },
        {
          "internalType": "uint256",
          "name": "_fee",
          "type": "uint256"
        },
        {
          "internalType": "uint256",
          "name": "_settlementDate",
          "type": "uint256"
        },
        {
          "internalType": "uint256",
          "name": "_version",
          "type": "uint256"
        }
      ],
      "payable": false,
      "stateMutability": "nonpayable",
      "type": "constructor"
    },
    {
      "anonymous": false,
      "inputs": [
        {
          "indexed": true,
          "internalType": "address",
          "name": "depositor",
          "type": "address"
        },
        {
          "indexed": true,
          "internalType": "address",
          "name": "cfd",
          "type": "address"
        },
        {
          "indexed": true,
          "internalType": "uint256",
          "name": "amount",
          "type": "uint256"
        },
        {
          "indexed": false,
          "internalType": "uint256",
          "name": "upDaiPoolEth",
          "type": "uint256"
        },
        {
          "indexed": false,
          "internalType": "uint256",
          "name": "downDaiPoolEth",
          "type": "uint256"
        }
      ],
      "name": "NeededEthCollateral",
      "type": "event"
    },
    {
      "constant": true,
      "inputs": [],
      "name": "daiPriceAtSettlement",
      "outputs": [
        {
          "internalType": "uint256",
          "name": "",
          "type": "uint256"
        }
      ],
      "payable": false,
      "stateMutability": "view",
      "type": "function"
    },
    {
      "constant": true,
      "inputs": [],
      "name": "daiToken",
      "outputs": [
        {
          "internalType": "address",
          "name": "",
          "type": "address"
        }
      ],
      "payable": false,
      "stateMutability": "view",
      "type": "function"
    },
    {
      "constant": true,
      "inputs": [],
      "name": "downDai",
      "outputs": [
        {
          "internalType": "contract DownDai",
          "name": "",
          "type": "address"
        }
      ],
      "payable": false,
      "stateMutability": "view",
      "type": "function"
    },
    {
      "constant": true,
      "inputs": [],
      "name": "downDaiRateAtSettlement",
      "outputs": [
        {
          "internalType": "uint256",
          "name": "",
          "type": "uint256"
        }
      ],
      "payable": false,
      "stateMutability": "view",
      "type": "function"
    },
    {
      "constant": true,
      "inputs": [],
      "name": "feeRate",
      "outputs": [
        {
          "internalType": "uint256",
          "name": "",
          "type": "uint256"
        }
      ],
      "payable": false,
      "stateMutability": "view",
      "type": "function"
    },
    {
      "constant": true,
      "inputs": [],
      "name": "inSettlementPeriod",
      "outputs": [
        {
          "internalType": "bool",
          "name": "",
          "type": "bool"
        }
      ],
      "payable": false,
      "stateMutability": "view",
      "type": "function"
    },
    {
      "constant": true,
      "inputs": [],
      "name": "leverage",
      "outputs": [
        {
          "internalType": "uint256",
          "name": "",
          "type": "uint256"
        }
      ],
      "payable": false,
      "stateMutability": "view",
      "type": "function"
    },
    {
      "constant": true,
      "inputs": [],
      "name": "makerMedianizer",
      "outputs": [
        {
          "internalType": "address",
          "name": "",
          "type": "address"
        }
      ],
      "payable": false,
      "stateMutability": "view",
      "type": "function"
    },
    {
      "constant": true,
      "inputs": [],
      "name": "settlementDate",
      "outputs": [
        {
          "internalType": "uint256",
          "name": "",
          "type": "uint256"
        }
      ],
      "payable": false,
      "stateMutability": "view",
      "type": "function"
    },
    {
      "constant": true,
      "inputs": [
        {
          "internalType": "address",
          "name": "",
          "type": "address"
        }
      ],
      "name": "stakes",
      "outputs": [
        {
          "internalType": "uint256",
          "name": "upLP",
          "type": "uint256"
        },
        {
          "internalType": "uint256",
          "name": "downLP",
          "type": "uint256"
        },
        {
          "internalType": "uint256",
          "name": "mintVolume",
          "type": "uint256"
        },
        {
          "internalType": "bool",
          "name": "liquidated",
          "type": "bool"
        }
      ],
      "payable": false,
      "stateMutability": "view",
      "type": "function"
    },
    {
      "constant": true,
      "inputs": [],
      "name": "totalMintVolumeInDai",
      "outputs": [
        {
          "internalType": "uint256",
          "name": "",
          "type": "uint256"
        }
      ],
      "payable": false,
      "stateMutability": "view",
      "type": "function"
    },
    {
      "constant": true,
      "inputs": [],
      "name": "uniswapDownDaiExchange",
      "outputs": [
        {
          "internalType": "contract IUniswapExchange",
          "name": "",
          "type": "address"
        }
      ],
      "payable": false,
      "stateMutability": "view",
      "type": "function"
    },
    {
      "constant": true,
      "inputs": [],
      "name": "uniswapFactory",
      "outputs": [
        {
          "internalType": "address",
          "name": "",
          "type": "address"
        }
      ],
      "payable": false,
      "stateMutability": "view",
      "type": "function"
    },
    {
      "constant": true,
      "inputs": [],
      "name": "uniswapUpDaiExchange",
      "outputs": [
        {
          "internalType": "contract IUniswapExchange",
          "name": "",
          "type": "address"
        }
      ],
      "payable": false,
      "stateMutability": "view",
      "type": "function"
    },
    {
      "constant": true,
      "inputs": [],
      "name": "upDai",
      "outputs": [
        {
          "internalType": "contract UpDai",
          "name": "",
          "type": "address"
        }
      ],
      "payable": false,
      "stateMutability": "view",
      "type": "function"
    },
    {
      "constant": true,
      "inputs": [],
      "name": "upDaiRateAtSettlement",
      "outputs": [
        {
          "internalType": "uint256",
          "name": "",
          "type": "uint256"
        }
      ],
      "payable": false,
      "stateMutability": "view",
      "type": "function"
    },
    {
      "constant": false,
      "inputs": [
        {
          "internalType": "uint256",
          "name": "_daiDeposit",
          "type": "uint256"
        }
      ],
      "name": "mint",
      "outputs": [],
      "payable": true,
      "stateMutability": "payable",
      "type": "function"
    },
    {
      "constant": false,
      "inputs": [
        {
          "internalType": "uint256",
          "name": "_daiDeposit",
          "type": "uint256"
        }
      ],
      "name": "getETHCollateralRequirements",
      "outputs": [
        {
          "internalType": "uint256",
          "name": "",
          "type": "uint256"
        },
        {
          "internalType": "uint256",
          "name": "",
          "type": "uint256"
        }
      ],
      "payable": false,
      "stateMutability": "nonpayable",
      "type": "function"
    },
    {
      "constant": false,
      "inputs": [],
      "name": "claimRewards",
      "outputs": [],
      "payable": false,
      "stateMutability": "nonpayable",
      "type": "function"
    },
    {
      "constant": false,
      "inputs": [
        {
          "internalType": "uint256",
          "name": "_redeemAmount",
          "type": "uint256"
        }
      ],
      "name": "redeem",
      "outputs": [],
      "payable": false,
      "stateMutability": "nonpayable",
      "type": "function"
    },
    {
      "constant": false,
      "inputs": [],
      "name": "redeemFinal",
      "outputs": [],
      "payable": false,
      "stateMutability": "nonpayable",
      "type": "function"
    },
    {
      "constant": false,
      "inputs": [
        {
          "internalType": "uint256",
          "name": "daiUsdPrice",
          "type": "uint256"
        }
      ],
      "name": "_getCurrentDaiRates",
      "outputs": [
        {
          "internalType": "uint256",
          "name": "upDaiRate",
          "type": "uint256"
        },
        {
          "internalType": "uint256",
          "name": "downDaiRate",
          "type": "uint256"
        }
      ],
      "payable": false,
      "stateMutability": "nonpayable",
      "type": "function"
    },
    {
      "constant": true,
      "inputs": [],
      "name": "GetDaiPriceUSD",
      "outputs": [
        {
          "internalType": "uint256",
          "name": "relativePrice",
          "type": "uint256"
        }
      ],
      "payable": false,
      "stateMutability": "view",
      "type": "function"
    },
    {
      "constant": true,
      "inputs": [],
      "name": "GetETHUSDPriceFromMedianizer",
      "outputs": [
        {
          "internalType": "uint256",
          "name": "",
          "type": "uint256"
        }
      ],
      "payable": false,
      "stateMutability": "view",
      "type": "function"
    }
  ],
  "bytecode": "0x6080604052600a805460ff191690553480156200001b57600080fd5b506040516200465138038062004651833981810160405260e08110156200004157600080fd5b50805160208201516040808401516060850151608086015160a087015160c090970151600080546001600160a01b03808a166001600160a01b03199283161790925560018054838a1690831617905560028054928716929091169190911790556007839055600882905560098890559351959694959294919390928190620000c99062000447565b90815260405190819003602001906000f080158015620000ed573d6000803e3d6000fd5b50600380546001600160a01b0319166001600160a01b039290921691909117905560405181906200011e9062000455565b90815260405190819003602001906000f08015801562000142573d6000803e3d6000fd5b50600480546001600160a01b0319166001600160a01b0392831617815560015460035460408051630b2479c760e11b8152918516938201939093529151921691631648f38e916024808201926020929091908290030181600087803b158015620001ab57600080fd5b505af1158015620001c0573d6000803e3d6000fd5b505050506040513d6020811015620001d757600080fd5b5051600580546001600160a01b0319166001600160a01b039283161790556001546004805460408051630b2479c760e11b81529185169282019290925290519190921691631648f38e9160248083019260209291908290030181600087803b1580156200024357600080fd5b505af115801562000258573d6000803e3d6000fd5b505050506040513d60208110156200026f57600080fd5b5051600680546001600160a01b0319166001600160a01b039283161790556003546005546040805163095ea7b360e01b81529184166004830152600019602483015251919092169163095ea7b39160448083019260209291908290030181600087803b158015620002df57600080fd5b505af1158015620002f4573d6000803e3d6000fd5b505050506040513d60208110156200030b57600080fd5b50516200035f576040805162461bcd60e51b815260206004820152601860248201527f417070726f76616c206f66207570446169206661696c65640000000000000000604482015290519081900360640190fd5b600480546006546040805163095ea7b360e01b81526001600160a01b039283169481019490945260001960248501525191169163095ea7b39160448083019260209291908290030181600087803b158015620003ba57600080fd5b505af1158015620003cf573d6000803e3d6000fd5b505050506040513d6020811015620003e657600080fd5b50516200043a576040805162461bcd60e51b815260206004820152601a60248201527f417070726f76616c206f6620646f776e446169206661696c6564000000000000604482015290519081900360640190fd5b5050505050505062000463565b6114738062001d6783390190565b61147780620031da83390190565b6118f480620004736000396000f3fe60806040526004361061014b5760003560e01c8063978bbdb9116100b6578063b253cfc31161006f578063b253cfc31461039f578063b3d06b62146103b4578063be22f546146103c9578063db006a75146103de578063e3b6da0614610408578063ed2739661461041d5761014b565b8063978bbdb91461030457806398b5507614610319578063a0712d681461032e578063a1ab47661461034b578063a823d7a014610375578063ab5ff82d1461038a5761014b565b80634b40a435116101085780634b40a435146102285780635d1c82d1146102595780636b902273146102825780636baa3ee1146102975780638b41f641146102ac5780638bdb2afa146102ef5761014b565b806316934fc4146101505780631b7b033b146101ab57806324a601e1146101c25780632c86d98e146101e9578063372500ab146101fe5780634acefe1d14610213575b600080fd5b34801561015c57600080fd5b506101836004803603602081101561017357600080fd5b50356001600160a01b0316610432565b6040805194855260208501939093528383019190915215156060830152519081900360800190f35b3480156101b757600080fd5b506101c061045c565b005b3480156101ce57600080fd5b506101d7610697565b60408051918252519081900360200190f35b3480156101f557600080fd5b506101d761069d565b34801561020a57600080fd5b506101c06106a3565b34801561021f57600080fd5b506101d7610a3e565b34801561023457600080fd5b5061023d610a44565b604080516001600160a01b039092168252519081900360200190f35b34801561026557600080fd5b5061026e610a53565b604080519115158252519081900360200190f35b34801561028e57600080fd5b5061023d610a5c565b3480156102a357600080fd5b5061023d610a6b565b3480156102b857600080fd5b506102d6600480360360208110156102cf57600080fd5b5035610a7a565b6040805192835260208301919091528051918290030190f35b3480156102fb57600080fd5b5061023d610b7f565b34801561031057600080fd5b506101d7610b8e565b34801561032557600080fd5b506101d7610b94565b6101c06004803603602081101561034457600080fd5b5035610c14565b34801561035757600080fd5b506102d66004803603602081101561036e57600080fd5b5035611185565b34801561038157600080fd5b506101d7611268565b34801561039657600080fd5b5061023d61126e565b3480156103ab57600080fd5b506101d761127d565b3480156103c057600080fd5b506101d7611283565b3480156103d557600080fd5b5061023d6113b8565b3480156103ea57600080fd5b506101c06004803603602081101561040157600080fd5b50356113c7565b34801561041457600080fd5b5061023d611559565b34801561042957600080fd5b506101d7611568565b600f6020526000908152604090208054600182015460028301546003909301549192909160ff1684565b600a5460ff166104b3576040805162461bcd60e51b815260206004820152601c60248201527f4d75737420626520696e20736574746c656d656e7420706572696f6400000000604482015290519081900360640190fd5b600354604080516370a0823160e01b815233600482015290516000926001600160a01b0316916370a08231916024808301926020929190829003018186803b1580156104fe57600080fd5b505afa158015610512573d6000803e3d6000fd5b505050506040513d602081101561052857600080fd5b505160048054604080516370a0823160e01b81523393810193909352519293506000926001600160a01b03909116916370a08231916024808301926020929190829003018186803b15801561057c57600080fd5b505afa158015610590573d6000803e3d6000fd5b505050506040513d60208110156105a657600080fd5b50516003546040805163079cc67960e41b81523360048201526024810186905290519293506001600160a01b03909116916379cc67909160448082019260009290919082900301818387803b1580156105fe57600080fd5b505af1158015610612573d6000803e3d6000fd5b5050600480546040805163079cc67960e41b8152339381019390935260248301869052516001600160a01b0390911693506379cc67909250604480830192600092919082900301818387803b15801561066a57600080fd5b505af115801561067e573d6000803e3d6000fd5b50505050610693338383600c54600d5461156e565b5050565b600b5481565b60075481565b600a5460ff166106fa576040805162461bcd60e51b815260206004820152601c60248201527f4d75737420626520696e20736574746c656d656e7420706572696f6400000000604482015290519081900360640190fd5b61070261184b565b50336000908152600f602090815260409182902082516080810184528154815260018201549281019290925260028101549282018390526003015460ff1615156060820152901580159061075857508060600151155b6107a2576040805162461bcd60e51b815260206004820152601660248201527526bab9ba1031329030903b30b634b21039ba30b5b2b960511b604482015290519081900360640190fd5b336000908152600f60205260408120600301805460ff19166001179055600854600e546107d49163ffffffff61166c16565b6002546040805163a9059cbb60e01b81523360048201526024810184905290519293506001600160a01b039091169163a9059cbb916044808201926020929091908290030181600087803b15801561082b57600080fd5b505af115801561083f573d6000803e3d6000fd5b505050506040513d602081101561085557600080fd5b50516108a0576040805162461bcd60e51b81526020600482015260156024820152744d757374207265636569766520746865206665657360581b604482015290519081900360640190fd5b600554825160408051637c45f8ad60e11b815260048101929092526001602483018190526044830152610e1042016064830152805160009384936001600160a01b039091169263f88bf15a9260848084019382900301818787803b15801561090757600080fd5b505af115801561091b573d6000803e3d6000fd5b505050506040513d604081101561093157600080fd5b5080516020918201516006549287015160408051637c45f8ad60e11b815260048101929092526001602483018190526044830152610e1042016064830152805193965091945060009384936001600160a01b039091169263f88bf15a926084808201939182900301818787803b1580156109aa57600080fd5b505af11580156109be573d6000803e3d6000fd5b505050506040513d60408110156109d457600080fd5b508051602090910151600c54600d549294509092506109f9913391869185919061156e565b336108fc610a0d868563ffffffff61168a16565b6040518115909202916000818181858888f19350505050158015610a35573d6000803e3d6000fd5b50505050505050565b600c5481565b6006546001600160a01b031681565b600a5460ff1681565b6004546001600160a01b031681565b6000546001600160a01b031681565b600080670de0b6b3a76400008084118281610aa457610a9f838763ffffffff6116e216565b610ab4565b610ab4868463ffffffff6116e216565b90506000610acd6007548361166c90919063ffffffff16565b90506000610ae1858363ffffffff61168a16565b9050671bc16d674ec800008110610b4457600a805460ff19166001179055600b88905560008085610b1c576000671bc16d674ec80000610b28565b671bc16d674ec8000060005b600c829055600d8190559099509750610b7a9650505050505050565b6000610b5e671bc16d674ec800008463ffffffff6116e216565b905084610b6c578082610b6f565b81815b975097505050505050505b915091565b6001546001600160a01b031681565b60085481565b60008060009054906101000a90046001600160a01b03166001600160a01b03166357de26a46040518163ffffffff1660e01b815260040160206040518083038186803b158015610be357600080fd5b505afa158015610bf7573d6000803e3d6000fd5b505050506040513d6020811015610c0d57600080fd5b5051905090565b600954421115610c4857600a805460ff19166001179055610c33611283565b600b819055610c4190610a7a565b600d55600c555b600a5460ff1615610ca0576040805162461bcd60e51b815260206004820181905260248201527f4d757374206e6f7420626520696e20736574746c656d656e7420706572696f64604482015290519081900360640190fd5b600254604080516323b872dd60e01b81523360048201523060248201526044810184905290516001600160a01b03909216916323b872dd916064808201926020929091908290030181600087803b158015610cfa57600080fd5b505af1158015610d0e573d6000803e3d6000fd5b505050506040513d6020811015610d2457600080fd5b5051610d615760405162461bcd60e51b81526004018080602001828103825260278152602001806118996027913960400191505060405180910390fd5b600080610d6d83611185565b90925090506000610d84838363ffffffff61168a16565b905080341015610ddb576040805162461bcd60e51b815260206004820152601a60248201527f4346443a3a6572726f72207472616e73666572696e6720455448000000000000604482015290519081900360640190fd5b80341115610e145760405133903483900380156108fc02916000818181858888f19350505050158015610e12573d6000803e3d6000fd5b505b6003546001600160a01b03166340c10f1930610e3787600263ffffffff61173f16565b6040518363ffffffff1660e01b815260040180836001600160a01b03166001600160a01b0316815260200182815260200192505050602060405180830381600087803b158015610e8657600080fd5b505af1158015610e9a573d6000803e3d6000fd5b505050506040513d6020811015610eb057600080fd5b50506004546001600160a01b03166340c10f1930610ed587600263ffffffff61173f16565b6040518363ffffffff1660e01b815260040180836001600160a01b03166001600160a01b0316815260200182815260200192505050602060405180830381600087803b158015610f2457600080fd5b505af1158015610f38573d6000803e3d6000fd5b505050506040513d6020811015610f4e57600080fd5b50506005546000906001600160a01b031663422f1043856001610f7889600263ffffffff61173f16565b610f8a42610e1063ffffffff61168a16565b6040518563ffffffff1660e01b81526004018084815260200183815260200182815260200193505050506020604051808303818588803b158015610fcd57600080fd5b505af1158015610fe1573d6000803e3d6000fd5b50505050506040513d6020811015610ff857600080fd5b50516006549091506000906001600160a01b031663422f10438560016110258a600263ffffffff61173f16565b42610e10016040518563ffffffff1660e01b81526004018084815260200183815260200182815260200193505050506020604051808303818588803b15801561106d57600080fd5b505af1158015611081573d6000803e3d6000fd5b50505050506040513d602081101561109857600080fd5b5051600e549091506110b0908763ffffffff61168a16565b600e5560408051608081018252336000908152600f602052919091205481906110df908563ffffffff61168a16565b8152336000908152600f602090815260409091206001015491019061110a908463ffffffff61168a16565b8152336000908152600f6020908152604090912060020154910190611135908963ffffffff61168a16565b815260006020918201819052338152600f82526040908190208351815591830151600183015582015160028201556060909101516003909101805460ff1916911515919091179055505050505050565b6000808061119a84600263ffffffff61173f16565b905060006111a6610b94565b905060006111b2611283565b90506000806111c083610a7a565b909250905060006111d7838763ffffffff61166c16565b905060006111eb838863ffffffff61166c16565b905060006111ff838863ffffffff6117a616565b90506000611213838963ffffffff6117a616565b604080518481526020810183905281519293508e92309233927fa4eed5e778243395c4dbb5e0725e8a4b2bfdbd28db5c240ed091608746778983929081900390910190a4909950975050505050505050915091565b600e5481565b6003546001600160a01b031681565b600d5481565b600154600254604080516303795fb160e11b81526001600160a01b0392831660048201529051600093849316916306f2bf62916024808301926020929190829003018186803b1580156112d557600080fd5b505afa1580156112e9573d6000803e3d6000fd5b505050506040513d60208110156112ff57600080fd5b50519050600061130d610b94565b90506000826001600160a01b031663cd7724c3620f42406040518263ffffffff1660e01b81526004018082815260200191505060206040518083038186803b15801561135857600080fd5b505afa15801561136c573d6000803e3d6000fd5b505050506040513d602081101561138257600080fd5b50519050600061139d8264e8d4a5100063ffffffff6117cf16565b90506113af838263ffffffff6117a616565b94505050505090565b6002546001600160a01b031681565b6009544211156113fb57600a805460ff191660011790556113e6611283565b600b8190556113f490610a7a565b600d55600c555b600a5460ff1615611453576040805162461bcd60e51b815260206004820181905260248201527f4d757374206e6f7420626520696e20736574746c656d656e7420706572696f64604482015290519081900360640190fd5b6003546040805163079cc67960e41b81523360048201526024810184905290516001600160a01b03909216916379cc67909160448082019260009290919082900301818387803b1580156114a657600080fd5b505af11580156114ba573d6000803e3d6000fd5b5050600480546040805163079cc67960e41b8152339381019390935260248301869052516001600160a01b0390911693506379cc67909250604480830192600092919082900301818387803b15801561151257600080fd5b505af1158015611526573d6000803e3d6000fd5b505050506000611534611283565b905060008061154283610a7a565b91509150611553338586858561156e565b50505050565b6005546001600160a01b031681565b60095481565b6000611580838663ffffffff61166c16565b90506000611594838663ffffffff61166c16565b905060006115a8838363ffffffff61168a16565b905060006115c16008548361166c90919063ffffffff16565b6002549091506001600160a01b031663a9059cbb8a6115e6858563ffffffff6116e216565b6040518363ffffffff1660e01b815260040180836001600160a01b03166001600160a01b0316815260200182815260200192505050602060405180830381600087803b15801561163557600080fd5b505af1158015611649573d6000803e3d6000fd5b505050506040513d602081101561165f57600080fd5b5050505050505050505050565b60006116818383670de0b6b3a7640000611829565b90505b92915050565b81810182811015611684576040805162461bcd60e51b815260206004820152601d60248201527f537461626c654d6174683a206164646974696f6e206f766572666c6f77000000604482015290519081900360640190fd5b600082821115611739576040805162461bcd60e51b815260206004820181905260248201527f537461626c654d6174683a207375627472616374696f6e206f766572666c6f77604482015290519081900360640190fd5b50900390565b6000808211611795576040805162461bcd60e51b815260206004820152601c60248201527f537461626c654d6174683a206469766973696f6e206279207a65726f00000000604482015290519081900360640190fd5b81838161179e57fe5b049392505050565b6000806117bb84670de0b6b3a76400006117cf565b90506117c7818461173f565b949350505050565b6000826117de57506000611684565b50818102818382816117ec57fe5b04146116845760405162461bcd60e51b81526004018080602001828103825260238152602001806118766023913960400191505060405180910390fd5b60008061183685856117cf565b9050611842818461173f565b95945050505050565b6040518060800160405280600081526020016000815260200160008152602001600015158152509056fe537461626c654d6174683a206d756c7469706c69636174696f6e206f766572666c6f774346443a3a6572726f72207472616e73666572696e6720756e6465726c79696e67206173736574a265627a7a7231582048093d9e2961e180b5374ae32011a2893edeb5291469bd5166068a6b4ac8e59664736f6c6343000510003260806040523480156200001157600080fd5b506040516200147338038062001473833981810160405260208110156200003757600080fd5b5051604080518082018252600681526555702044616960d01b602082810191825283518085019094526005845264555044414960d81b90840152815191929160129162000088916000919062000229565b5081516200009e90600190602085019062000229565b506002805460ff191660ff9290921691909117905550620000d39050620000c4620000dc565b6001600160e01b03620000e116565b600755620002cb565b335b90565b620000fc8160066200013360201b62000e7e1790919060201c565b6040516001600160a01b038216907f6ae172837ea30b801fbfcdd4108aa1d5bf8ff775444fd70256b44e6bf3dfc3f690600090a250565b6200014882826001600160e01b03620001c016565b156200019b576040805162461bcd60e51b815260206004820152601f60248201527f526f6c65733a206163636f756e7420616c72656164792068617320726f6c6500604482015290519081900360640190fd5b6001600160a01b0316600090815260209190915260409020805460ff19166001179055565b60006001600160a01b038216620002095760405162461bcd60e51b8152600401808060200182810382526022815260200180620014516022913960400191505060405180910390fd5b506001600160a01b03166000908152602091909152604090205460ff1690565b828054600181600116156101000203166002900490600052602060002090601f016020900481019282601f106200026c57805160ff19168380011785556200029c565b828001600101855582156200029c579182015b828111156200029c5782518255916020019190600101906200027f565b50620002aa929150620002ae565b5090565b620000de91905b80821115620002aa5760008155600101620002b5565b61117680620002db6000396000f3fe608060405234801561001057600080fd5b50600436106101165760003560e01c806370a08231116100a257806398650275116100715780639865027514610345578063a457c2d71461034d578063a9059cbb14610379578063aa271e1a146103a5578063dd62ed3e146103cb57610116565b806370a08231146102c557806379cc6790146102eb57806395d89b4114610317578063983b2d561461031f57610116565b8063313ce567116100e9578063313ce56714610228578063395093511461024657806340c10f191461027257806342966c681461029e57806354fd4d50146102bd57610116565b806306fdde031461011b578063095ea7b31461019857806318160ddd146101d857806323b872dd146101f2575b600080fd5b6101236103f9565b6040805160208082528351818301528351919283929083019185019080838360005b8381101561015d578181015183820152602001610145565b50505050905090810190601f16801561018a5780820380516001836020036101000a031916815260200191505b509250505060405180910390f35b6101c4600480360360408110156101ae57600080fd5b506001600160a01b03813516906020013561048f565b604080519115158252519081900360200190f35b6101e06104ac565b60408051918252519081900360200190f35b6101c46004803603606081101561020857600080fd5b506001600160a01b038135811691602081013590911690604001356104b2565b61023061053f565b6040805160ff9092168252519081900360200190f35b6101c46004803603604081101561025c57600080fd5b506001600160a01b038135169060200135610548565b6101c46004803603604081101561028857600080fd5b506001600160a01b03813516906020013561059c565b6102bb600480360360208110156102b457600080fd5b50356105f3565b005b6101e0610607565b6101e0600480360360208110156102db57600080fd5b50356001600160a01b031661060d565b6102bb6004803603604081101561030157600080fd5b506001600160a01b038135169060200135610628565b610123610636565b6102bb6004803603602081101561033557600080fd5b50356001600160a01b0316610696565b6102bb6106e5565b6101c46004803603604081101561036357600080fd5b506001600160a01b0381351690602001356106f7565b6101c46004803603604081101561038f57600080fd5b506001600160a01b038135169060200135610765565b6101c4600480360360208110156103bb57600080fd5b50356001600160a01b0316610779565b6101e0600480360360408110156103e157600080fd5b506001600160a01b0381358116916020013516610792565b60008054604080516020601f60026000196101006001881615020190951694909404938401819004810282018101909252828152606093909290918301828280156104855780601f1061045a57610100808354040283529160200191610485565b820191906000526020600020905b81548152906001019060200180831161046857829003601f168201915b5050505050905090565b60006104a361049c6107bd565b84846107c1565b50600192915050565b60055490565b60006104bf8484846108ad565b610535846104cb6107bd565b61053085604051806060016040528060288152602001611045602891396001600160a01b038a166000908152600460205260408120906105096107bd565b6001600160a01b03168152602081019190915260400160002054919063ffffffff610a0b16565b6107c1565b5060019392505050565b60025460ff1690565b60006104a36105556107bd565b8461053085600460006105666107bd565b6001600160a01b03908116825260208083019390935260409182016000908120918c16815292529020549063ffffffff610aa216565b60006105ae6105a96107bd565b610779565b6105e95760405162461bcd60e51b8152600401808060200182810382526030815260200180610ff46030913960400191505060405180910390fd5b6104a38383610b03565b6106046105fe6107bd565b82610bf5565b50565b60075481565b6001600160a01b031660009081526003602052604090205490565b6106328282610cf1565b5050565b60018054604080516020601f600260001961010087891615020190951694909404938401819004810282018101909252828152606093909290918301828280156104855780601f1061045a57610100808354040283529160200191610485565b6106a16105a96107bd565b6106dc5760405162461bcd60e51b8152600401808060200182810382526030815260200180610ff46030913960400191505060405180910390fd5b61060481610d45565b6106f56106f06107bd565b610d8d565b565b60006104a36107046107bd565b846105308560405180606001604052806025815260200161111d602591396004600061072e6107bd565b6001600160a01b03908116825260208083019390935260409182016000908120918d1681529252902054919063ffffffff610a0b16565b60006104a36107726107bd565b84846108ad565b600061078c60068363ffffffff610dd516565b92915050565b6001600160a01b03918216600090815260046020908152604080832093909416825291909152205490565b3390565b6001600160a01b0383166108065760405162461bcd60e51b81526004018080602001828103825260248152602001806110f96024913960400191505060405180910390fd5b6001600160a01b03821661084b5760405162461bcd60e51b8152600401808060200182810382526022815260200180610fac6022913960400191505060405180910390fd5b6001600160a01b03808416600081815260046020908152604080832094871680845294825291829020859055815185815291517f8c5be1e5ebec7d5bd14f71427d1e84f3dd0314c0f7b2291e5b200ac8c7c3b9259281900390910190a3505050565b6001600160a01b0383166108f25760405162461bcd60e51b81526004018080602001828103825260258152602001806110d46025913960400191505060405180910390fd5b6001600160a01b0382166109375760405162461bcd60e51b8152600401808060200182810382526023815260200180610f676023913960400191505060405180910390fd5b61097a81604051806060016040528060268152602001610fce602691396001600160a01b038616600090815260036020526040902054919063ffffffff610a0b16565b6001600160a01b0380851660009081526003602052604080822093909355908416815220546109af908263ffffffff610aa216565b6001600160a01b0380841660008181526003602090815260409182902094909455805185815290519193928716927fddf252ad1be2c89b69c2b068fc378daa952ba7f163c4a11628f55a4df523b3ef92918290030190a3505050565b60008184841115610a9a5760405162461bcd60e51b81526004018080602001828103825283818151815260200191508051906020019080838360005b83811015610a5f578181015183820152602001610a47565b50505050905090810190601f168015610a8c5780820380516001836020036101000a031916815260200191505b509250505060405180910390fd5b505050900390565b600082820183811015610afc576040805162461bcd60e51b815260206004820152601b60248201527f536166654d6174683a206164646974696f6e206f766572666c6f770000000000604482015290519081900360640190fd5b9392505050565b6001600160a01b038216610b5e576040805162461bcd60e51b815260206004820152601f60248201527f45524332303a206d696e7420746f20746865207a65726f206164647265737300604482015290519081900360640190fd5b600554610b71908263ffffffff610aa216565b6005556001600160a01b038216600090815260036020526040902054610b9d908263ffffffff610aa216565b6001600160a01b03831660008181526003602090815260408083209490945583518581529351929391927fddf252ad1be2c89b69c2b068fc378daa952ba7f163c4a11628f55a4df523b3ef9281900390910190a35050565b6001600160a01b038216610c3a5760405162461bcd60e51b81526004018080602001828103825260218152602001806110b36021913960400191505060405180910390fd5b610c7d81604051806060016040528060228152602001610f8a602291396001600160a01b038516600090815260036020526040902054919063ffffffff610a0b16565b6001600160a01b038316600090815260036020526040902055600554610ca9908263ffffffff610e3c16565b6005556040805182815290516000916001600160a01b038516917fddf252ad1be2c89b69c2b068fc378daa952ba7f163c4a11628f55a4df523b3ef9181900360200190a35050565b610cfb8282610bf5565b61063282610d076107bd565b6105308460405180606001604052806024815260200161108f602491396001600160a01b0388166000908152600460205260408120906105096107bd565b610d5660068263ffffffff610e7e16565b6040516001600160a01b038216907f6ae172837ea30b801fbfcdd4108aa1d5bf8ff775444fd70256b44e6bf3dfc3f690600090a250565b610d9e60068263ffffffff610eff16565b6040516001600160a01b038216907fe94479a9f7e1952cc78f2d6baab678adc1b772d936c6583def489e524cb6669290600090a250565b60006001600160a01b038216610e1c5760405162461bcd60e51b815260040180806020018281038252602281526020018061106d6022913960400191505060405180910390fd5b506001600160a01b03166000908152602091909152604090205460ff1690565b6000610afc83836040518060400160405280601e81526020017f536166654d6174683a207375627472616374696f6e206f766572666c6f770000815250610a0b565b610e888282610dd5565b15610eda576040805162461bcd60e51b815260206004820152601f60248201527f526f6c65733a206163636f756e7420616c72656164792068617320726f6c6500604482015290519081900360640190fd5b6001600160a01b0316600090815260209190915260409020805460ff19166001179055565b610f098282610dd5565b610f445760405162461bcd60e51b81526004018080602001828103825260218152602001806110246021913960400191505060405180910390fd5b6001600160a01b0316600090815260209190915260409020805460ff1916905556fe45524332303a207472616e7366657220746f20746865207a65726f206164647265737345524332303a206275726e20616d6f756e7420657863656564732062616c616e636545524332303a20617070726f766520746f20746865207a65726f206164647265737345524332303a207472616e7366657220616d6f756e7420657863656564732062616c616e63654d696e746572526f6c653a2063616c6c657220646f6573206e6f74206861766520746865204d696e74657220726f6c65526f6c65733a206163636f756e7420646f6573206e6f74206861766520726f6c6545524332303a207472616e7366657220616d6f756e74206578636565647320616c6c6f77616e6365526f6c65733a206163636f756e7420697320746865207a65726f206164647265737345524332303a206275726e20616d6f756e74206578636565647320616c6c6f77616e636545524332303a206275726e2066726f6d20746865207a65726f206164647265737345524332303a207472616e736665722066726f6d20746865207a65726f206164647265737345524332303a20617070726f76652066726f6d20746865207a65726f206164647265737345524332303a2064656372656173656420616c6c6f77616e63652062656c6f77207a65726fa265627a7a7231582013aba302c1bf4c9844fcab3a40949307572978500a25201a37d75c5767dc95bb64736f6c63430005100032526f6c65733a206163636f756e7420697320746865207a65726f206164647265737360806040523480156200001157600080fd5b506040516200147738038062001477833981810160405260208110156200003757600080fd5b50516040805180820182526008815267446f776e2044616960c01b602082810191825283518085019094526007845266444f574e44414960c81b9084015281519192916012916200008c91600091906200022d565b508151620000a29060019060208501906200022d565b506002805460ff191660ff9290921691909117905550620000d79050620000c8620000e0565b6001600160e01b03620000e516565b600755620002cf565b335b90565b620001008160066200013760201b62000e7e1790919060201c565b6040516001600160a01b038216907f6ae172837ea30b801fbfcdd4108aa1d5bf8ff775444fd70256b44e6bf3dfc3f690600090a250565b6200014c82826001600160e01b03620001c416565b156200019f576040805162461bcd60e51b815260206004820152601f60248201527f526f6c65733a206163636f756e7420616c72656164792068617320726f6c6500604482015290519081900360640190fd5b6001600160a01b0316600090815260209190915260409020805460ff19166001179055565b60006001600160a01b0382166200020d5760405162461bcd60e51b8152600401808060200182810382526022815260200180620014556022913960400191505060405180910390fd5b506001600160a01b03166000908152602091909152604090205460ff1690565b828054600181600116156101000203166002900490600052602060002090601f016020900481019282601f106200027057805160ff1916838001178555620002a0565b82800160010185558215620002a0579182015b82811115620002a057825182559160200191906001019062000283565b50620002ae929150620002b2565b5090565b620000e291905b80821115620002ae5760008155600101620002b9565b61117680620002df6000396000f3fe608060405234801561001057600080fd5b50600436106101165760003560e01c806370a08231116100a257806398650275116100715780639865027514610345578063a457c2d71461034d578063a9059cbb14610379578063aa271e1a146103a5578063dd62ed3e146103cb57610116565b806370a08231146102c557806379cc6790146102eb57806395d89b4114610317578063983b2d561461031f57610116565b8063313ce567116100e9578063313ce56714610228578063395093511461024657806340c10f191461027257806342966c681461029e57806354fd4d50146102bd57610116565b806306fdde031461011b578063095ea7b31461019857806318160ddd146101d857806323b872dd146101f2575b600080fd5b6101236103f9565b6040805160208082528351818301528351919283929083019185019080838360005b8381101561015d578181015183820152602001610145565b50505050905090810190601f16801561018a5780820380516001836020036101000a031916815260200191505b509250505060405180910390f35b6101c4600480360360408110156101ae57600080fd5b506001600160a01b03813516906020013561048f565b604080519115158252519081900360200190f35b6101e06104ac565b60408051918252519081900360200190f35b6101c46004803603606081101561020857600080fd5b506001600160a01b038135811691602081013590911690604001356104b2565b61023061053f565b6040805160ff9092168252519081900360200190f35b6101c46004803603604081101561025c57600080fd5b506001600160a01b038135169060200135610548565b6101c46004803603604081101561028857600080fd5b506001600160a01b03813516906020013561059c565b6102bb600480360360208110156102b457600080fd5b50356105f3565b005b6101e0610607565b6101e0600480360360208110156102db57600080fd5b50356001600160a01b031661060d565b6102bb6004803603604081101561030157600080fd5b506001600160a01b038135169060200135610628565b610123610636565b6102bb6004803603602081101561033557600080fd5b50356001600160a01b0316610696565b6102bb6106e5565b6101c46004803603604081101561036357600080fd5b506001600160a01b0381351690602001356106f7565b6101c46004803603604081101561038f57600080fd5b506001600160a01b038135169060200135610765565b6101c4600480360360208110156103bb57600080fd5b50356001600160a01b0316610779565b6101e0600480360360408110156103e157600080fd5b506001600160a01b0381358116916020013516610792565b60008054604080516020601f60026000196101006001881615020190951694909404938401819004810282018101909252828152606093909290918301828280156104855780601f1061045a57610100808354040283529160200191610485565b820191906000526020600020905b81548152906001019060200180831161046857829003601f168201915b5050505050905090565b60006104a361049c6107bd565b84846107c1565b50600192915050565b60055490565b60006104bf8484846108ad565b610535846104cb6107bd565b61053085604051806060016040528060288152602001611045602891396001600160a01b038a166000908152600460205260408120906105096107bd565b6001600160a01b03168152602081019190915260400160002054919063ffffffff610a0b16565b6107c1565b5060019392505050565b60025460ff1690565b60006104a36105556107bd565b8461053085600460006105666107bd565b6001600160a01b03908116825260208083019390935260409182016000908120918c16815292529020549063ffffffff610aa216565b60006105ae6105a96107bd565b610779565b6105e95760405162461bcd60e51b8152600401808060200182810382526030815260200180610ff46030913960400191505060405180910390fd5b6104a38383610b03565b6106046105fe6107bd565b82610bf5565b50565b60075481565b6001600160a01b031660009081526003602052604090205490565b6106328282610cf1565b5050565b60018054604080516020601f600260001961010087891615020190951694909404938401819004810282018101909252828152606093909290918301828280156104855780601f1061045a57610100808354040283529160200191610485565b6106a16105a96107bd565b6106dc5760405162461bcd60e51b8152600401808060200182810382526030815260200180610ff46030913960400191505060405180910390fd5b61060481610d45565b6106f56106f06107bd565b610d8d565b565b60006104a36107046107bd565b846105308560405180606001604052806025815260200161111d602591396004600061072e6107bd565b6001600160a01b03908116825260208083019390935260409182016000908120918d1681529252902054919063ffffffff610a0b16565b60006104a36107726107bd565b84846108ad565b600061078c60068363ffffffff610dd516565b92915050565b6001600160a01b03918216600090815260046020908152604080832093909416825291909152205490565b3390565b6001600160a01b0383166108065760405162461bcd60e51b81526004018080602001828103825260248152602001806110f96024913960400191505060405180910390fd5b6001600160a01b03821661084b5760405162461bcd60e51b8152600401808060200182810382526022815260200180610fac6022913960400191505060405180910390fd5b6001600160a01b03808416600081815260046020908152604080832094871680845294825291829020859055815185815291517f8c5be1e5ebec7d5bd14f71427d1e84f3dd0314c0f7b2291e5b200ac8c7c3b9259281900390910190a3505050565b6001600160a01b0383166108f25760405162461bcd60e51b81526004018080602001828103825260258152602001806110d46025913960400191505060405180910390fd5b6001600160a01b0382166109375760405162461bcd60e51b8152600401808060200182810382526023815260200180610f676023913960400191505060405180910390fd5b61097a81604051806060016040528060268152602001610fce602691396001600160a01b038616600090815260036020526040902054919063ffffffff610a0b16565b6001600160a01b0380851660009081526003602052604080822093909355908416815220546109af908263ffffffff610aa216565b6001600160a01b0380841660008181526003602090815260409182902094909455805185815290519193928716927fddf252ad1be2c89b69c2b068fc378daa952ba7f163c4a11628f55a4df523b3ef92918290030190a3505050565b60008184841115610a9a5760405162461bcd60e51b81526004018080602001828103825283818151815260200191508051906020019080838360005b83811015610a5f578181015183820152602001610a47565b50505050905090810190601f168015610a8c5780820380516001836020036101000a031916815260200191505b509250505060405180910390fd5b505050900390565b600082820183811015610afc576040805162461bcd60e51b815260206004820152601b60248201527f536166654d6174683a206164646974696f6e206f766572666c6f770000000000604482015290519081900360640190fd5b9392505050565b6001600160a01b038216610b5e576040805162461bcd60e51b815260206004820152601f60248201527f45524332303a206d696e7420746f20746865207a65726f206164647265737300604482015290519081900360640190fd5b600554610b71908263ffffffff610aa216565b6005556001600160a01b038216600090815260036020526040902054610b9d908263ffffffff610aa216565b6001600160a01b03831660008181526003602090815260408083209490945583518581529351929391927fddf252ad1be2c89b69c2b068fc378daa952ba7f163c4a11628f55a4df523b3ef9281900390910190a35050565b6001600160a01b038216610c3a5760405162461bcd60e51b81526004018080602001828103825260218152602001806110b36021913960400191505060405180910390fd5b610c7d81604051806060016040528060228152602001610f8a602291396001600160a01b038516600090815260036020526040902054919063ffffffff610a0b16565b6001600160a01b038316600090815260036020526040902055600554610ca9908263ffffffff610e3c16565b6005556040805182815290516000916001600160a01b038516917fddf252ad1be2c89b69c2b068fc378daa952ba7f163c4a11628f55a4df523b3ef9181900360200190a35050565b610cfb8282610bf5565b61063282610d076107bd565b6105308460405180606001604052806024815260200161108f602491396001600160a01b0388166000908152600460205260408120906105096107bd565b610d5660068263ffffffff610e7e16565b6040516001600160a01b038216907f6ae172837ea30b801fbfcdd4108aa1d5bf8ff775444fd70256b44e6bf3dfc3f690600090a250565b610d9e60068263ffffffff610eff16565b6040516001600160a01b038216907fe94479a9f7e1952cc78f2d6baab678adc1b772d936c6583def489e524cb6669290600090a250565b60006001600160a01b038216610e1c5760405162461bcd60e51b815260040180806020018281038252602281526020018061106d6022913960400191505060405180910390fd5b506001600160a01b03166000908152602091909152604090205460ff1690565b6000610afc83836040518060400160405280601e81526020017f536166654d6174683a207375627472616374696f6e206f766572666c6f770000815250610a0b565b610e888282610dd5565b15610eda576040805162461bcd60e51b815260206004820152601f60248201527f526f6c65733a206163636f756e7420616c72656164792068617320726f6c6500604482015290519081900360640190fd5b6001600160a01b0316600090815260209190915260409020805460ff19166001179055565b610f098282610dd5565b610f445760405162461bcd60e51b81526004018080602001828103825260218152602001806110246021913960400191505060405180910390fd5b6001600160a01b0316600090815260209190915260409020805460ff1916905556fe45524332303a207472616e7366657220746f20746865207a65726f206164647265737345524332303a206275726e20616d6f756e7420657863656564732062616c616e636545524332303a20617070726f766520746f20746865207a65726f206164647265737345524332303a207472616e7366657220616d6f756e7420657863656564732062616c616e63654d696e746572526f6c653a2063616c6c657220646f6573206e6f74206861766520746865204d696e74657220726f6c65526f6c65733a206163636f756e7420646f6573206e6f74206861766520726f6c6545524332303a207472616e7366657220616d6f756e74206578636565647320616c6c6f77616e6365526f6c65733a206163636f756e7420697320746865207a65726f206164647265737345524332303a206275726e20616d6f756e74206578636565647320616c6c6f77616e636545524332303a206275726e2066726f6d20746865207a65726f206164647265737345524332303a207472616e736665722066726f6d20746865207a65726f206164647265737345524332303a20617070726f76652066726f6d20746865207a65726f206164647265737345524332303a2064656372656173656420616c6c6f77616e63652062656c6f77207a65726fa265627a7a7231582054063beeac9013868a8b9118e579f640b78c92ef41ec0352030f499d3c869c4864736f6c63430005100032526f6c65733a206163636f756e7420697320746865207a65726f2061646472657373",
  "source": "pragma solidity ^0.5.16;\n\nimport \"openzeppelin-solidity/contracts/token/ERC20/IERC20.sol\";\nimport \"./interfaces/IUniswapFactory.sol\";\nimport \"./interfaces/IUniswapExchange.sol\";\nimport \"./interfaces/IMakerMedianizer.sol\";\nimport \"./tokens/UpDai.sol\";\nimport \"./tokens/DownDai.sol\";\nimport \"./StableMath.sol\";\n\n/**\n  * @title CFD - take a 20x leveraged position on the future price of DAI.. or provide\n  * liquidity to the market and earn staking rewards. Liquidation prices at 20x are 0.95<>1.05\n  * @author Daichotomy team\n  * @dev Check out all this sweet code!\n  */\ncontract CFD {\n    using StableMath for uint256;\n\n    /***************************************\n                  CONNECTIONS\n    ****************************************/\n\n    address public makerMedianizer;\n    address public uniswapFactory;\n    address public daiToken;\n\n    /***************************************\n                    CONFIG\n    ****************************************/\n\n    UpDai public upDai;\n    DownDai public downDai;\n    IUniswapExchange public uniswapUpDaiExchange;\n    IUniswapExchange public uniswapDownDaiExchange;\n\n    uint256 public leverage; // 1x leverage == 1e18\n    uint256 public feeRate; // 100% fee == 1e18, 0.3% fee == 3e15\n    uint256 public settlementDate; // In seconds\n\n    /***************************************\n              STAKING & SETTLEMENT\n    ****************************************/\n\n    bool public inSettlementPeriod = false;\n    uint256 public daiPriceAtSettlement; // $1 == 1e18\n    uint256 public upDaiRateAtSettlement; // 1:1 == 1e18\n    uint256 public downDaiRateAtSettlement; // 1:1 == 1e18\n\n    uint256 public totalMintVolumeInDai;\n\n    struct Stake {\n        uint256 upLP; // Total LP for the UPDAI pool\n        uint256 downLP; // Total LP for the UPDAI pool\n        uint256 mintVolume; // Total mint volume in DA units\n        bool liquidated; // Has this staker withdrawn his funds?\n    }\n\n    mapping(address => Stake) public stakes;\n\n    event NeededEthCollateral(\n        address indexed depositor,\n        address indexed cfd,\n        uint256 indexed amount,\n        uint256 upDaiPoolEth,\n        uint256 downDaiPoolEth\n    );\n\n    /**\n     * @notice constructor\n     * @param _makerMedianizer maker medianizer address\n     * @param _uniswapFactory uniswap factory address\n     * @param _daiToken maker medianizer address\n     * @param _leverage leverage (1000000000000000x) (1x == 1e18)\n     * @param _fee payout fee (1% == 1e16)\n     * @param _settlementDate maker medianizer address\n     * @param _version which tranche are we on?\n     */\n    constructor(\n        address _makerMedianizer,\n        address _uniswapFactory,\n        address _daiToken,\n        uint256 _leverage,\n        uint256 _fee,\n        uint256 _settlementDate,\n        uint256 _version\n    ) public {\n        makerMedianizer = _makerMedianizer;\n        uniswapFactory = _uniswapFactory;\n        daiToken = _daiToken;\n\n        leverage = _leverage;\n        feeRate = _fee;\n        settlementDate = _settlementDate;\n\n        upDai = new UpDai(_version);\n        downDai = new DownDai(_version);\n\n        uniswapUpDaiExchange = IUniswapExchange(\n            IUniswapFactory(uniswapFactory).createExchange(address(upDai))\n        );\n        uniswapDownDaiExchange = IUniswapExchange(\n            IUniswapFactory(uniswapFactory).createExchange(address(downDai))\n        );\n\n        require(\n            upDai.approve(address(uniswapUpDaiExchange), uint256(-1)),\n            \"Approval of upDai failed\"\n        );\n        require(\n            downDai.approve(address(uniswapDownDaiExchange), uint256(-1)),\n            \"Approval of downDai failed\"\n        );\n    }\n\n    /***************************************\n                    MODIFIERS\n    ****************************************/\n\n    modifier notInSettlementPeriod() {\n        if (now > settlementDate) {\n            inSettlementPeriod = true;\n            daiPriceAtSettlement = GetDaiPriceUSD();\n            (\n                upDaiRateAtSettlement,\n                downDaiRateAtSettlement\n            ) = _getCurrentDaiRates(daiPriceAtSettlement);\n        }\n        require(!inSettlementPeriod, \"Must not be in settlement period\");\n        _;\n    }\n\n    modifier onlyInSettlementPeriod() {\n        require(inSettlementPeriod, \"Must be in settlement period\");\n        _;\n    }\n\n    /***************************************\n              LIQUIDITY PROVIDERS\n    ****************************************/\n\n    /**\n     * @notice mint UP and DOWN DAI tokens\n     * @param _daiDeposit amount of DAI to deposit\n     */\n    function mint(uint256 _daiDeposit) external payable notInSettlementPeriod {\n        // Step 1. Take the DAI\n        require(\n            IERC20(daiToken).transferFrom(\n                msg.sender,\n                address(this),\n                _daiDeposit\n            ),\n            \"CFD::error transfering underlying asset\"\n        );\n\n        // Step 2. Calculate the value of these tokens, and how much ETH that is\n        (uint256 upDaiEthUnits, uint256 downDaiEthUnits) = getETHCollateralRequirements(\n            _daiDeposit\n        );\n        uint256 totalETHCollateral = upDaiEthUnits.add(downDaiEthUnits);\n        require(msg.value >= totalETHCollateral, \"CFD::error transfering ETH\");\n        if (msg.value > totalETHCollateral) {\n            msg.sender.transfer(msg.value - totalETHCollateral);\n        }\n\n        // Step 3. Mint the up/down DAI tokens\n        upDai.mint(address(this), _daiDeposit.div(2));\n        downDai.mint(address(this), _daiDeposit.div(2));\n\n        // Step 4. Contribute to Uniswap\n        uint256 upLP = uniswapUpDaiExchange.addLiquidity.value(upDaiEthUnits)(\n            1,\n            _daiDeposit.div(2),\n            now.add(3600)\n        );\n        uint256 downLP = uniswapDownDaiExchange.addLiquidity.value(\n            downDaiEthUnits\n        )(1, _daiDeposit.div(2), now + 3600);\n\n        // Step 5. Store the LP and log the mint volume\n        totalMintVolumeInDai = totalMintVolumeInDai.add(_daiDeposit);\n        stakes[msg.sender] = Stake({\n            upLP: stakes[msg.sender].upLP.add(upLP),\n            downLP: stakes[msg.sender].downLP.add(downLP),\n            mintVolume: stakes[msg.sender].mintVolume.add(_daiDeposit),\n            liquidated: false\n        });\n\n        // TODO - add a time element here to incentivise early stakers to provide liquidity\n        // This will affect the proportionate amount of rewards they receive at the end\n\n    }\n\n    /**\n     * @notice get the amount of ETH required to create a uniswap exchange\n     * @param _daiDeposit the total amount of underlying to deposit (UP/DOWN DAI = _daiDeposit/2)\n     * @return the amount of ETH needed for UPDAI pool and DOWNDAI pool\n     */\n    function getETHCollateralRequirements(uint256 _daiDeposit)\n        public\n        returns (uint256, uint256)\n    {\n        uint256 individualDeposits = _daiDeposit.div(2);\n        // get ETH price, where $200 == 200e18\n        uint256 ethUsdPrice = GetETHUSDPriceFromMedianizer();\n        // get DAI price, where $1 == 1e18\n        uint256 daiPriceUsd = GetDaiPriceUSD();\n\n        // Rate 1:1 == 1e18, 1.2:1 == 12e17\n        (uint256 upDaiRate, uint256 downDaiRate) = _getCurrentDaiRates(\n            daiPriceUsd\n        );\n        // e.g. (11e17 * 1e18) / 1e18 = 11e17\n        uint256 totalUpDaiValue = upDaiRate.mulTruncate(individualDeposits);\n        uint256 totalDownDaiValue = downDaiRate.mulTruncate(individualDeposits);\n\n        // ETH amount needed for the UPDAI pool\n        // e.g. (11e17 * 1e18) / 287e18 = 11e35 / 287e18 = 3e15 ETH\n        uint256 upDaiPoolEth = totalUpDaiValue.divPrecisely(ethUsdPrice);\n        uint256 downDaiPoolEth = totalDownDaiValue.divPrecisely(ethUsdPrice);\n\n        emit NeededEthCollateral(\n            msg.sender,\n            address(this),\n            _daiDeposit,\n            upDaiPoolEth,\n            downDaiPoolEth\n        );\n\n        return (upDaiPoolEth, downDaiPoolEth);\n    }\n\n    /**\n     * @notice Claims all rewards that a staker is eligable for\n     */\n    function claimRewards() external onlyInSettlementPeriod {\n        Stake memory stake = stakes[msg.sender];\n        require(\n            stake.mintVolume > 0 && !stake.liquidated,\n            \"Must be a valid staker\"\n        );\n        stakes[msg.sender].liquidated = true;\n\n        // 1. Claim Redemption Fees (proportionate to LP)\n        // e.g. (1e27 * 3e15)/1e18 = 3e42/1e18 = 3e24\n        uint256 totalRedemptionFees = totalMintVolumeInDai.mulTruncate(feeRate);\n        require(\n            IERC20(daiToken).transfer(msg.sender, totalRedemptionFees),\n            \"Must receive the fees\"\n        );\n\n        // 2. Redeem or withdraw LP\n        // 2.1. Get everything from Uniswap\n        (uint256 ethRedeemedUp, uint256 upDaiRedeemed) = uniswapUpDaiExchange\n            .removeLiquidity(stake.upLP, 1, 1, now + 3600);\n        (uint256 ethRedeemedDown, uint256 downDaiRedeemed) = uniswapDownDaiExchange\n            .removeLiquidity(stake.downLP, 1, 1, now + 3600);\n        // 2.2. Redeem all the tokens\n        _payout(\n            msg.sender,\n            upDaiRedeemed,\n            downDaiRedeemed,\n            upDaiRateAtSettlement,\n            downDaiRateAtSettlement\n        );\n        // 2.3. Transfer the eth to the user\n        msg.sender.transfer(ethRedeemedUp.add(ethRedeemedDown));\n    }\n\n    /***************************************\n                PUBLIC REDEPTION\n    ****************************************/\n\n    /**\n     * @notice redeem a pair of UPDAI and DOWNDAI\n     * @dev this function can be called before the settlement date, an equal amount of UPDAI and DOWNDAI should be deposited\n     * @param _redeemAmount Pair count where 1 real token == 1e18 base units\n     */\n    function redeem(uint256 _redeemAmount) public notInSettlementPeriod {\n        // burn UPDAI & DOWNDAI from redeemer\n        upDai.burnFrom(msg.sender, _redeemAmount);\n        downDai.burnFrom(msg.sender, _redeemAmount);\n\n        uint256 daiPriceUsd = GetDaiPriceUSD();\n        // Rate 1:1 == 1e18, 1.2:1 == 12e17\n        (uint256 upDaiRate, uint256 downDaiRate) = _getCurrentDaiRates(\n            daiPriceUsd\n        );\n\n        // spread MONEY bitches\n        _payout(\n            msg.sender,\n            _redeemAmount,\n            _redeemAmount,\n            upDaiRate,\n            downDaiRate\n        );\n    }\n\n    /**\n     * @notice redeem UPDAI or DOWNDAI token\n     * @dev this function can only be called after contract settlement\n     */\n    function redeemFinal() public onlyInSettlementPeriod {\n        // get upDai balance\n        uint256 upDaiRedeemAmount = upDai.balanceOf(msg.sender);\n        // get downDai balance\n        uint256 downDaiRedeemAmount = downDai.balanceOf(msg.sender);\n\n        // burn upDai\n        upDai.burnFrom(msg.sender, upDaiRedeemAmount);\n        // burn downDai\n        downDai.burnFrom(msg.sender, downDaiRedeemAmount);\n\n        // spread MONEY bitches\n        _payout(\n            msg.sender,\n            upDaiRedeemAmount,\n            downDaiRedeemAmount,\n            upDaiRateAtSettlement,\n            downDaiRateAtSettlement\n        );\n    }\n\n    /***************************************\n              INTERNAL - PAYOUT\n    ****************************************/\n\n    /**\n     * @notice $ payout function $\n     * @dev can only be called internally\n     * @param redeemer redeemer address\n     * @param upDaiUnits units of UpDai\n     * @param downDaiUnits units of DownDai\n     * @param upDaiRate Rate of uDAI<>DAI\n     * @param downDaiRate units of downDAI<>DAI\n     */\n    function _payout(\n        address redeemer,\n        uint256 upDaiUnits,\n        uint256 downDaiUnits,\n        uint256 upDaiRate,\n        uint256 downDaiRate\n    ) internal {\n        // e.g. (12e17 * 100e18) / 1e18 = 12e37 / 1e18 = 120e18\n        uint256 convertedUpDai = upDaiRate.mulTruncate(upDaiUnits);\n        // e.g. (8e17 * 100e18) / 1e18 = 8e37 / 1e18 = 80e18\n        uint256 convertedDownDai = downDaiRate.mulTruncate(downDaiUnits);\n        // if feeRate = 3e15, (2e20*3e15)/1e18 = 6e17\n        uint256 totalDaiPayout = convertedUpDai.add(convertedDownDai);\n        uint256 fee = totalDaiPayout.mulTruncate(feeRate);\n        // Pay the moola\n        IERC20(daiToken).transfer(redeemer, totalDaiPayout.sub(fee));\n    }\n\n    /***************************************\n                  PRICE HELPERS\n    ****************************************/\n\n    /**\n     * @notice Based on the price of DAI, what are the current exchange rates for upDai and downDai?\n     * @param daiUsdPrice Dai price in USD where $1 == 1e18\n     * @return upDaiRate where 1:1 == 1e18\n     * @return downDaiRate where 1:1 == 1e18\n     */\n    function _getCurrentDaiRates(uint256 daiUsdPrice)\n        public\n        returns (uint256 upDaiRate, uint256 downDaiRate)\n    {\n        // (1 + ((DaiPriceFeed-1) *  Leverage))\n        // Given that price is reflected absolutely on both sides.. then\n        // (1 + (delta * leverage)), to find the up multiplier\n        uint256 one = 1e18;\n        bool priceIsPositive = daiUsdPrice > one;\n        // Get price delta, e.g. if daiUsdPrice == 1007e15, delta == 7e15\n        uint256 delta = priceIsPositive\n            ? daiUsdPrice.sub(one)\n            : one.sub(daiUsdPrice);\n        // Consider 20x leverage == 20e18 == 2e19, then\n        // e.g. 7e15 * 2e19 == 14e34, then truncate to 4e16\n        uint256 deltaWithLeverage = delta.mulTruncate(leverage);\n        // e.g. 1e18 + 4e16 = 104e16\n        uint256 winRate = one.add(deltaWithLeverage);\n        // If the price has hit the roof, settle the contract\n        if (winRate >= uint256(2e18)) {\n            inSettlementPeriod = true;\n            daiPriceAtSettlement = daiUsdPrice;\n            // If Price is positive, Up wins and is worth 2:1, where Down is worth 0:1\n            (uint256 finalUpDaiRate, uint256 finalDownDaiRate) = priceIsPositive\n                ? (uint256(2e18), uint256(0))\n                : (uint256(0), uint256(2e18));\n            upDaiRateAtSettlement = finalUpDaiRate;\n            downDaiRateAtSettlement = finalDownDaiRate;\n            return (finalUpDaiRate, finalDownDaiRate);\n        }\n        // e.g. 1e18 - 2e17 = 8e17\n        uint256 loseRate = (uint256(2e18)).sub(deltaWithLeverage);\n        // If price is positive, upDaiRate should be better :)\n        return priceIsPositive ? (winRate, loseRate) : (loseRate, winRate);\n    }\n\n    /**\n     * @notice get DAI price in USD\n     * @dev this function get the DAI/USD price by getting the price of ETH/USD from Maker medianizer and dividing it by the price of ETH/DAI from Uniswap.\n     * @return relativePrice of DAI with regards to USD peg, where 1:1 == 1e18\n     */\n    function GetDaiPriceUSD() public view returns (uint256 relativePrice) {\n        address uniswapExchangeAddress = IUniswapFactory(uniswapFactory)\n            .getExchange(daiToken);\n\n        // ethUsdPrice, where $1 == 1e18\n        uint256 ethUsdPrice = GetETHUSDPriceFromMedianizer();\n        // ethDaiPrice, where 1:1 == 1e8. Using a single wei here means 0 slippage and allows pricing from low liq pool\n        // extrapolate to base 1e18 in order to do calcs\n        uint256 ethDaiPriceSimple = IUniswapExchange(uniswapExchangeAddress)\n            .getEthToTokenInputPrice(1 * 10**6);\n        uint256 ethDaiPriceExact = ethDaiPriceSimple.mul(10**12);\n\n        return ethUsdPrice.divPrecisely(ethDaiPriceExact);\n    }\n\n    /**\n     * @notice Parses the bytes32 price from Makers Medianizer into uint\n     * @return uint256 Medianised price where $1 == 1e18\n     */\n    function GetETHUSDPriceFromMedianizer() public view returns (uint256) {\n        return uint256(IMakerMedianizer(makerMedianizer).read());\n    }\n}\n",
  "sourcePath": "/Users/haythem96/Projects/DaiHard/contracts/CFD.sol",
  "compiler": {
    "name": "solc",
    "version": "0.5.16+commit.9c3226ce.Emscripten.clang"
  },
  "schemaVersion": "3.0.23",
  "updatedAt": "2020-02-19T07:27:07.926Z",
  "devdoc": {
    "author": "Daichotomy team",
    "details": "Check out all this sweet code!",
    "methods": {
      "GetDaiPriceUSD()": {
        "details": "this function get the DAI/USD price by getting the price of ETH/USD from Maker medianizer and dividing it by the price of ETH/DAI from Uniswap.",
        "return": "relativePrice of DAI with regards to USD peg, where 1:1 == 1e18"
      },
      "GetETHUSDPriceFromMedianizer()": {
        "return": "uint256 Medianised price where $1 == 1e18"
      },
      "_getCurrentDaiRates(uint256)": {
        "params": {
          "daiUsdPrice": "Dai price in USD where $1 == 1e18"
        },
        "return": "upDaiRate where 1:1 == 1e18downDaiRate where 1:1 == 1e18"
      },
      "constructor": {
        "params": {
          "_daiToken": "maker medianizer address",
          "_fee": "payout fee (1% == 1e16)",
          "_leverage": "leverage (1000000000000000x) (1x == 1e18)",
          "_makerMedianizer": "maker medianizer address",
          "_settlementDate": "maker medianizer address",
          "_uniswapFactory": "uniswap factory address",
          "_version": "which tranche are we on?"
        }
      },
      "getETHCollateralRequirements(uint256)": {
        "params": {
          "_daiDeposit": "the total amount of underlying to deposit (UP/DOWN DAI = _daiDeposit/2)"
        },
        "return": "the amount of ETH needed for UPDAI pool and DOWNDAI pool"
      },
      "mint(uint256)": {
        "params": {
          "_daiDeposit": "amount of DAI to deposit"
        }
      },
      "redeem(uint256)": {
        "details": "this function can be called before the settlement date, an equal amount of UPDAI and DOWNDAI should be deposited",
        "params": {
          "_redeemAmount": "Pair count where 1 real token == 1e18 base units"
        }
      },
      "redeemFinal()": {
        "details": "this function can only be called after contract settlement"
      }
    },
    "title": "CFD - take a 20x leveraged position on the future price of DAI.. or provide liquidity to the market and earn staking rewards. Liquidation prices at 20x are 0.95<>1.05"
  },
  "userdoc": {
    "methods": {
      "GetDaiPriceUSD()": {
        "notice": "get DAI price in USD"
      },
      "GetETHUSDPriceFromMedianizer()": {
        "notice": "Parses the bytes32 price from Makers Medianizer into uint"
      },
      "_getCurrentDaiRates(uint256)": {
        "notice": "Based on the price of DAI, what are the current exchange rates for upDai and downDai?"
      },
      "claimRewards()": {
        "notice": "Claims all rewards that a staker is eligable for"
      },
      "constructor": "constructor",
      "getETHCollateralRequirements(uint256)": {
        "notice": "get the amount of ETH required to create a uniswap exchange"
      },
      "mint(uint256)": {
        "notice": "mint UP and DOWN DAI tokens"
      },
      "redeem(uint256)": {
        "notice": "redeem a pair of UPDAI and DOWNDAI"
      },
      "redeemFinal()": {
        "notice": "redeem UPDAI or DOWNDAI token"
      }
    }
  }
}