{
  "contractName": "MakerMedianizerMock",
  "abi": [
    {
      "inputs": [],
      "payable": false,
      "stateMutability": "nonpayable",
      "type": "constructor"
    },
    {
      "constant": true,
      "inputs": [],
      "name": "read",
      "outputs": [
        {
          "internalType": "bytes32",
          "name": "",
          "type": "bytes32"
        }
      ],
      "payable": false,
      "stateMutability": "view",
      "type": "function"
    },
    {
      "constant": false,
      "inputs": [
        {
          "internalType": "uint256",
          "name": "_etherPrice",
          "type": "uint256"
        }
      ],
      "name": "poke",
      "outputs": [],
      "payable": false,
      "stateMutability": "nonpayable",
      "type": "function"
    }
  ],
  "bytecode": "0x6080604052680e60e0033988bb800060005534801561001d57600080fd5b5060ab8061002c6000396000f3fe6080604052348015600f57600080fd5b506004361060325760003560e01c806332145f9014603757806357de26a4146053575b600080fd5b605160048036036020811015604b57600080fd5b5035606b565b005b60596070565b60408051918252519081900360200190f35b600055565b6000549056fea265627a7a72315820170ee6582fa2ed15ff776b9ef85fd9f71ea0eb190b847d08c314c467f07e5e5e64736f6c63430005100032",
  "source": "pragma solidity ^0.5.16;\n\ncontract MakerMedianizerMock {\n    // Current price from Medianizer\n    bytes32 val = 0x00000000000000000000000000000000000000000000000e60e0033988bb8000; // $1 == 1e8\n\n    constructor() public {\n        // val = _etherPrice;\n    }\n\n    function read() external view returns (bytes32) {\n        return val;\n    }\n\n    function poke(uint256 _etherPrice) public {\n        val = bytes32(_etherPrice);\n    }\n}\n",
  "sourcePath": "/Users/haythem96/Projects/DaiHard/contracts/mocks/MakerMedianizerMock.sol",
  "compiler": {
    "name": "solc",
    "version": "0.5.16+commit.9c3226ce.Emscripten.clang"
  },
  "schemaVersion": "3.0.23",
  "updatedAt": "2020-02-16T14:35:19.502Z",
  "networkType": "ethereum",
  "devdoc": {
    "methods": {}
  },
  "userdoc": {
    "methods": {}
  }
}